{
  "address": "0x5FbDB2315678afecb367f032d93F642f64180aa3",
  "abi": [
    {
      "inputs": [],
      "stateMutability": "nonpayable",
      "type": "constructor"
    },
    {
      "inputs": [
        {
          "internalType": "uint256",
          "name": "code",
          "type": "uint256"
        },
        {
          "internalType": "string",
          "name": "message",
          "type": "string"
        }
      ],
      "name": "EmptyPurposeError",
      "type": "error"
    },
    {
      "anonymous": false,
      "inputs": [
        {
          "indexed": false,
          "internalType": "address",
          "name": "sender",
          "type": "address"
        },
        {
          "indexed": false,
          "internalType": "string",
          "name": "purpose",
          "type": "string"
        }
      ],
      "name": "SetPurpose",
      "type": "event"
    },
    {
      "inputs": [],
      "name": "purpose",
      "outputs": [
        {
          "internalType": "string",
          "name": "",
          "type": "string"
        }
      ],
      "stateMutability": "view",
      "type": "function"
    },
    {
      "inputs": [
        {
          "internalType": "string",
          "name": "newPurpose",
          "type": "string"
        }
      ],
      "name": "setPurpose",
      "outputs": [],
      "stateMutability": "nonpayable",
      "type": "function"
    }
  ],
  "transactionHash": "0xd11f7d8a7c5f81dfc5304a30d3adfe95efc90cfb062f41d7a1e6d93405d524e4",
  "args": [],
  "solcInputHash": "e796ad114258507e1596295da708a26e",
  "bytecode": "0x60c0604052601960808190527f4275696c64696e6720556e73746f707061626c6520417070730000000000000060a090815261003e9160009190610051565b5034801561004b57600080fd5b50610125565b82805461005d906100ea565b90600052602060002090601f01602090048101928261007f57600085556100c5565b82601f1061009857805160ff19168380011785556100c5565b828001600101855582156100c5579182015b828111156100c55782518255916020019190600101906100aa565b506100d19291506100d5565b5090565b5b808211156100d157600081556001016100d6565b600181811c908216806100fe57607f821691505b6020821081141561011f57634e487b7160e01b600052602260045260246000fd5b50919050565b6105f7806101346000396000f3fe608060405234801561001057600080fd5b50600436106100365760003560e01c806370740aab1461003b578063eb68757f14610059575b600080fd5b61004361006e565b6040516100509190610556565b60405180910390f35b61006c61006736600461036a565b6100fc565b005b6000805461007b90610570565b80601f01602080910402602001604051908101604052809291908181526020018280546100a790610570565b80156100f45780601f106100c9576101008083540402835291602001916100f4565b820191906000526020600020905b8154815290600101906020018083116100d757829003601f168201915b505050505081565b805161015857604080516314f4648b60e31b8152600160048201526024810191909152601860448201527f507572706f73652063616e206e6f7420626520656d7074790000000000000000606482015260840160405180910390fd5b805161016b9060009060208401906102d1565b50610227336040518060400160405280600e81526020016d73657420707572706f736520746f60901b815250600080546101a490610570565b80601f01602080910402602001604051908101604052809291908181526020018280546101d090610570565b801561021d5780601f106101f25761010080835404028352916020019161021d565b820191906000526020600020905b81548152906001019060200180831161020057829003601f168201915b5050505050610264565b7f6ea5d6383a120235c7728a9a6751672a8ac068e4ed34dcca2ee444182c1812de33600060405161025992919061049f565b60405180910390a150565b6102ab83838360405160240161027c9392919061045f565b60408051601f198184030181529190526020810180516001600160e01b031663fb77226560e01b1790526102b0565b505050565b80516a636f6e736f6c652e6c6f67602083016000808483855afa5050505050565b8280546102dd90610570565b90600052602060002090601f0160209004810192826102ff5760008555610345565b82601f1061031857805160ff1916838001178555610345565b82800160010185558215610345579182015b8281111561034557825182559160200191906001019061032a565b50610351929150610355565b5090565b5b808211156103515760008155600101610356565b60006020828403121561037b578081fd5b813567ffffffffffffffff80821115610392578283fd5b818401915084601f8301126103a5578283fd5b8135818111156103b7576103b76105ab565b604051601f8201601f19908116603f011681019083821181831017156103df576103df6105ab565b816040528281528760208487010111156103f7578586fd5b826020860160208301379182016020019490945295945050505050565b60008151808452815b818110156104395760208185018101518683018201520161041d565b8181111561044a5782602083870101525b50601f01601f19169290920160200192915050565b6001600160a01b038416815260606020820181905260009061048390830185610414565b82810360408401526104958185610414565b9695505050505050565b60018060a01b03831681526000602060408184015281845483600182811c9150808316806104ce57607f831692505b8583108114156104ec57634e487b7160e01b87526022600452602487fd5b604088018390526060880181801561050b576001811461051c57610546565b60ff19861682528782019650610546565b60008b815260209020895b8681101561054057815484820152908501908901610527565b83019750505b50949a9950505050505050505050565b6020815260006105696020830184610414565b9392505050565b600181811c9082168061058457607f821691505b602082108114156105a557634e487b7160e01b600052602260045260246000fd5b50919050565b634e487b7160e01b600052604160045260246000fdfea2646970667358221220e71824d25d73967975c6a28d8bd881a35f9a7263f4dfdc5ac545ec717b3c8b0b64736f6c63430008040033",
  "devdoc": {
    "kind": "dev",
    "methods": {},
    "version": 1
  },
  "userdoc": {
    "kind": "user",
    "methods": {},
    "version": 1
  },
  "storageLayout": {
    "storage": [
      {
        "astId": 11,
        "contract": "contracts/YourContract.sol:YourContract",
        "label": "purpose",
        "offset": 0,
        "slot": "0",
        "type": "t_string_storage"
      }
    ],
    "types": {
      "t_string_storage": {
        "encoding": "bytes",
        "label": "string",
        "numberOfBytes": "32"
      }
    }
  }
}